{
  "_format": "hh-sol-artifact-1",
  "contractName": "ContentIndex",
  "sourceName": "contracts/ContentIndex.sol",
  "abi": [
    {
      "inputs": [
        {
          "internalType": "address",
          "name": "trustedForwarder_",
          "type": "address"
        }
      ],
      "stateMutability": "nonpayable",
      "type": "constructor"
    },
    {
      "inputs": [
        {
          "internalType": "address",
          "name": "target",
          "type": "address"
        }
      ],
      "name": "AddressEmptyCode",
      "type": "error"
    },
    {
      "inputs": [],
      "name": "CannotCiteSelf",
      "type": "error"
    },
    {
      "inputs": [],
      "name": "CommunityNameTooLong",
      "type": "error"
    },
    {
      "inputs": [],
      "name": "ContentAlreadyExists",
      "type": "error"
    },
    {
      "inputs": [],
      "name": "ContentNotActive",
      "type": "error"
    },
    {
      "inputs": [],
      "name": "ContentNotFound",
      "type": "error"
    },
    {
      "inputs": [
        {
          "internalType": "address",
          "name": "implementation",
          "type": "address"
        }
      ],
      "name": "ERC1967InvalidImplementation",
      "type": "error"
    },
    {
      "inputs": [],
      "name": "ERC1967NonPayable",
      "type": "error"
    },
    {
      "inputs": [],
      "name": "EmptyString",
      "type": "error"
    },
    {
      "inputs": [],
      "name": "EnforcedPause",
      "type": "error"
    },
    {
      "inputs": [],
      "name": "ExpectedPause",
      "type": "error"
    },
    {
      "inputs": [],
      "name": "FailedCall",
      "type": "error"
    },
    {
      "inputs": [],
      "name": "InvalidContentType",
      "type": "error"
    },
    {
      "inputs": [],
      "name": "InvalidInitialization",
      "type": "error"
    },
    {
      "inputs": [],
      "name": "NotAuthorized",
      "type": "error"
    },
    {
      "inputs": [],
      "name": "NotInitializing",
      "type": "error"
    },
    {
      "inputs": [],
      "name": "NotRegisteredAgent",
      "type": "error"
    },
    {
      "inputs": [
        {
          "internalType": "address",
          "name": "owner",
          "type": "address"
        }
      ],
      "name": "OwnableInvalidOwner",
      "type": "error"
    },
    {
      "inputs": [
        {
          "internalType": "address",
          "name": "account",
          "type": "address"
        }
      ],
      "name": "OwnableUnauthorizedAccount",
      "type": "error"
    },
    {
      "inputs": [],
      "name": "PostingNotAllowed",
      "type": "error"
    },
    {
      "inputs": [],
      "name": "ReentrancyGuardReentrantCall",
      "type": "error"
    },
    {
      "inputs": [
        {
          "internalType": "address",
          "name": "token",
          "type": "address"
        }
      ],
      "name": "SafeERC20FailedOperation",
      "type": "error"
    },
    {
      "inputs": [],
      "name": "TokenTransferFailed",
      "type": "error"
    },
    {
      "inputs": [],
      "name": "TooManyCitations",
      "type": "error"
    },
    {
      "inputs": [],
      "name": "UUPSUnauthorizedCallContext",
      "type": "error"
    },
    {
      "inputs": [
        {
          "internalType": "bytes32",
          "name": "slot",
          "type": "bytes32"
        }
      ],
      "name": "UUPSUnsupportedProxiableUUID",
      "type": "error"
    },
    {
      "inputs": [],
      "name": "ZeroAddress",
      "type": "error"
    },
    {
      "anonymous": false,
      "inputs": [
        {
          "indexed": true,
          "internalType": "address",
          "name": "oldRegistry",
          "type": "address"
        },
        {
          "indexed": true,
          "internalType": "address",
          "name": "newRegistry",
          "type": "address"
        }
      ],
      "name": "AgentRegistryUpdated",
      "type": "event"
    },
    {
      "anonymous": false,
      "inputs": [
        {
          "indexed": true,
          "internalType": "bytes32",
          "name": "sourceCidHash",
          "type": "bytes32"
        },
        {
          "indexed": true,
          "internalType": "bytes32",
          "name": "citedCidHash",
          "type": "bytes32"
        },
        {
          "indexed": false,
          "internalType": "string",
          "name": "sourceCid",
          "type": "string"
        },
        {
          "indexed": false,
          "internalType": "string",
          "name": "citedCid",
          "type": "string"
        },
        {
          "indexed": false,
          "internalType": "uint256",
          "name": "timestamp",
          "type": "uint256"
        }
      ],
      "name": "CitationAdded",
      "type": "event"
    },
    {
      "anonymous": false,
      "inputs": [
        {
          "indexed": true,
          "internalType": "address",
          "name": "oldRegistry",
          "type": "address"
        },
        {
          "indexed": true,
          "internalType": "address",
          "name": "newRegistry",
          "type": "address"
        }
      ],
      "name": "CommunityRegistryUpdated",
      "type": "event"
    },
    {
      "anonymous": false,
      "inputs": [
        {
          "indexed": false,
          "internalType": "string",
          "name": "cid",
          "type": "string"
        },
        {
          "indexed": true,
          "internalType": "address",
          "name": "moderator",
          "type": "address"
        },
        {
          "indexed": false,
          "internalType": "uint256",
          "name": "timestamp",
          "type": "uint256"
        }
      ],
      "name": "ContentModerated",
      "type": "event"
    },
    {
      "anonymous": false,
      "inputs": [
        {
          "indexed": true,
          "internalType": "bytes32",
          "name": "cidHash",
          "type": "bytes32"
        },
        {
          "indexed": false,
          "internalType": "string",
          "name": "cid",
          "type": "string"
        },
        {
          "indexed": true,
          "internalType": "address",
          "name": "author",
          "type": "address"
        },
        {
          "indexed": false,
          "internalType": "string",
          "name": "community",
          "type": "string"
        },
        {
          "indexed": false,
          "internalType": "enum ContentIndex.ContentType",
          "name": "contentType",
          "type": "uint8"
        },
        {
          "indexed": false,
          "internalType": "string",
          "name": "parentCid",
          "type": "string"
        },
        {
          "indexed": false,
          "internalType": "uint256",
          "name": "timestamp",
          "type": "uint256"
        }
      ],
      "name": "ContentPublished",
      "type": "event"
    },
    {
      "anonymous": false,
      "inputs": [
        {
          "indexed": false,
          "internalType": "string",
          "name": "cid",
          "type": "string"
        },
        {
          "indexed": true,
          "internalType": "address",
          "name": "moderator",
          "type": "address"
        },
        {
          "indexed": false,
          "internalType": "uint256",
          "name": "timestamp",
          "type": "uint256"
        }
      ],
      "name": "ContentRestored",
      "type": "event"
    },
    {
      "anonymous": false,
      "inputs": [
        {
          "indexed": false,
          "internalType": "uint64",
          "name": "version",
          "type": "uint64"
        }
      ],
      "name": "Initialized",
      "type": "event"
    },
    {
      "anonymous": false,
      "inputs": [
        {
          "indexed": true,
          "internalType": "address",
          "name": "previousOwner",
          "type": "address"
        },
        {
          "indexed": true,
          "internalType": "address",
          "name": "newOwner",
          "type": "address"
        }
      ],
      "name": "OwnershipTransferred",
      "type": "event"
    },
    {
      "anonymous": false,
      "inputs": [
        {
          "indexed": false,
          "internalType": "address",
          "name": "account",
          "type": "address"
        }
      ],
      "name": "Paused",
      "type": "event"
    },
    {
      "anonymous": false,
      "inputs": [
        {
          "indexed": true,
          "internalType": "address",
          "name": "oldToken",
          "type": "address"
        },
        {
          "indexed": true,
          "internalType": "address",
          "name": "newToken",
          "type": "address"
        }
      ],
      "name": "PaymentTokenUpdated",
      "type": "event"
    },
    {
      "anonymous": false,
      "inputs": [
        {
          "indexed": false,
          "internalType": "uint256",
          "name": "oldFee",
          "type": "uint256"
        },
        {
          "indexed": false,
          "internalType": "uint256",
          "name": "newFee",
          "type": "uint256"
        }
      ],
      "name": "PostFeeUpdated",
      "type": "event"
    },
    {
      "anonymous": false,
      "inputs": [
        {
          "indexed": true,
          "internalType": "address",
          "name": "oldTreasury",
          "type": "address"
        },
        {
          "indexed": true,
          "internalType": "address",
          "name": "newTreasury",
          "type": "address"
        }
      ],
      "name": "TreasuryUpdated",
      "type": "event"
    },
    {
      "anonymous": false,
      "inputs": [
        {
          "indexed": false,
          "internalType": "address",
          "name": "account",
          "type": "address"
        }
      ],
      "name": "Unpaused",
      "type": "event"
    },
    {
      "anonymous": false,
      "inputs": [
        {
          "indexed": true,
          "internalType": "address",
          "name": "implementation",
          "type": "address"
        }
      ],
      "name": "Upgraded",
      "type": "event"
    },
    {
      "inputs": [],
      "name": "MAX_CITATIONS_PER_CALL",
      "outputs": [
        {
          "internalType": "uint256",
          "name": "",
          "type": "uint256"
        }
      ],
      "stateMutability": "view",
      "type": "function"
    },
    {
      "inputs": [],
      "name": "MAX_COMMUNITY_LENGTH",
      "outputs": [
        {
          "internalType": "uint256",
          "name": "",
          "type": "uint256"
        }
      ],
      "stateMutability": "view",
      "type": "function"
    },
    {
      "inputs": [],
      "name": "UPGRADE_INTERFACE_VERSION",
      "outputs": [
        {
          "internalType": "string",
          "name": "",
          "type": "string"
        }
      ],
      "stateMutability": "view",
      "type": "function"
    },
    {
      "inputs": [
        {
          "internalType": "string",
          "name": "cid",
          "type": "string"
        },
        {
          "internalType": "string[]",
          "name": "citedCids",
          "type": "string[]"
        }
      ],
      "name": "addCitations",
      "outputs": [],
      "stateMutability": "nonpayable",
      "type": "function"
    },
    {
      "inputs": [],
      "name": "agentRegistry",
      "outputs": [
        {
          "internalType": "address",
          "name": "",
          "type": "address"
        }
      ],
      "stateMutability": "view",
      "type": "function"
    },
    {
      "inputs": [
        {
          "internalType": "address",
          "name": "",
          "type": "address"
        }
      ],
      "name": "authorPostCount",
      "outputs": [
        {
          "internalType": "uint256",
          "name": "",
          "type": "uint256"
        }
      ],
      "stateMutability": "view",
      "type": "function"
    },
    {
      "inputs": [
        {
          "internalType": "string",
          "name": "",
          "type": "string"
        }
      ],
      "name": "communityPostCount",
      "outputs": [
        {
          "internalType": "uint256",
          "name": "",
          "type": "uint256"
        }
      ],
      "stateMutability": "view",
      "type": "function"
    },
    {
      "inputs": [],
      "name": "communityRegistry",
      "outputs": [
        {
          "internalType": "address",
          "name": "",
          "type": "address"
        }
      ],
      "stateMutability": "view",
      "type": "function"
    },
    {
      "inputs": [
        {
          "internalType": "string",
          "name": "cid",
          "type": "string"
        }
      ],
      "name": "contentExists",
      "outputs": [
        {
          "internalType": "bool",
          "name": "",
          "type": "bool"
        }
      ],
      "stateMutability": "view",
      "type": "function"
    },
    {
      "inputs": [
        {
          "internalType": "string",
          "name": "cid",
          "type": "string"
        }
      ],
      "name": "getCitationCount",
      "outputs": [
        {
          "internalType": "uint256",
          "name": "outbound",
          "type": "uint256"
        },
        {
          "internalType": "uint256",
          "name": "inbound",
          "type": "uint256"
        }
      ],
      "stateMutability": "view",
      "type": "function"
    },
    {
      "inputs": [
        {
          "internalType": "string",
          "name": "cid",
          "type": "string"
        }
      ],
      "name": "getCitations",
      "outputs": [
        {
          "internalType": "bytes32[]",
          "name": "",
          "type": "bytes32[]"
        }
      ],
      "stateMutability": "view",
      "type": "function"
    },
    {
      "inputs": [
        {
          "internalType": "string",
          "name": "cid",
          "type": "string"
        }
      ],
      "name": "getCitedBy",
      "outputs": [
        {
          "internalType": "bytes32[]",
          "name": "",
          "type": "bytes32[]"
        }
      ],
      "stateMutability": "view",
      "type": "function"
    },
    {
      "inputs": [
        {
          "internalType": "string",
          "name": "cid",
          "type": "string"
        }
      ],
      "name": "getContent",
      "outputs": [
        {
          "components": [
            {
              "internalType": "address",
              "name": "author",
              "type": "address"
            },
            {
              "internalType": "string",
              "name": "community",
              "type": "string"
            },
            {
              "internalType": "enum ContentIndex.ContentType",
              "name": "contentType",
              "type": "uint8"
            },
            {
              "internalType": "string",
              "name": "parentCid",
              "type": "string"
            },
            {
              "internalType": "uint256",
              "name": "timestamp",
              "type": "uint256"
            },
            {
              "internalType": "bool",
              "name": "isActive",
              "type": "bool"
            }
          ],
          "internalType": "struct ContentIndex.ContentEntry",
          "name": "",
          "type": "tuple"
        }
      ],
      "stateMutability": "view",
      "type": "function"
    },
    {
      "inputs": [
        {
          "internalType": "address",
          "name": "owner_",
          "type": "address"
        },
        {
          "internalType": "address",
          "name": "agentRegistry_",
          "type": "address"
        },
        {
          "internalType": "address",
          "name": "treasury_",
          "type": "address"
        }
      ],
      "name": "initialize",
      "outputs": [],
      "stateMutability": "nonpayable",
      "type": "function"
    },
    {
      "inputs": [],
      "name": "initializeV2",
      "outputs": [],
      "stateMutability": "nonpayable",
      "type": "function"
    },
    {
      "inputs": [
        {
          "internalType": "string",
          "name": "cid",
          "type": "string"
        }
      ],
      "name": "isContentActive",
      "outputs": [
        {
          "internalType": "bool",
          "name": "",
          "type": "bool"
        }
      ],
      "stateMutability": "view",
      "type": "function"
    },
    {
      "inputs": [
        {
          "internalType": "address",
          "name": "forwarder",
          "type": "address"
        }
      ],
      "name": "isTrustedForwarder",
      "outputs": [
        {
          "internalType": "bool",
          "name": "",
          "type": "bool"
        }
      ],
      "stateMutability": "view",
      "type": "function"
    },
    {
      "inputs": [
        {
          "internalType": "string",
          "name": "cid",
          "type": "string"
        }
      ],
      "name": "moderateContent",
      "outputs": [],
      "stateMutability": "nonpayable",
      "type": "function"
    },
    {
      "inputs": [],
      "name": "owner",
      "outputs": [
        {
          "internalType": "address",
          "name": "",
          "type": "address"
        }
      ],
      "stateMutability": "view",
      "type": "function"
    },
    {
      "inputs": [],
      "name": "pause",
      "outputs": [],
      "stateMutability": "nonpayable",
      "type": "function"
    },
    {
      "inputs": [],
      "name": "paused",
      "outputs": [
        {
          "internalType": "bool",
          "name": "",
          "type": "bool"
        }
      ],
      "stateMutability": "view",
      "type": "function"
    },
    {
      "inputs": [],
      "name": "paymentToken",
      "outputs": [
        {
          "internalType": "contract IERC20",
          "name": "",
          "type": "address"
        }
      ],
      "stateMutability": "view",
      "type": "function"
    },
    {
      "inputs": [],
      "name": "postFee",
      "outputs": [
        {
          "internalType": "uint256",
          "name": "",
          "type": "uint256"
        }
      ],
      "stateMutability": "view",
      "type": "function"
    },
    {
      "inputs": [],
      "name": "proxiableUUID",
      "outputs": [
        {
          "internalType": "bytes32",
          "name": "",
          "type": "bytes32"
        }
      ],
      "stateMutability": "view",
      "type": "function"
    },
    {
      "inputs": [
        {
          "internalType": "string",
          "name": "cid",
          "type": "string"
        },
        {
          "internalType": "string",
          "name": "community",
          "type": "string"
        },
        {
          "internalType": "string",
          "name": "parentCid",
          "type": "string"
        }
      ],
      "name": "publishComment",
      "outputs": [],
      "stateMutability": "nonpayable",
      "type": "function"
    },
    {
      "inputs": [
        {
          "internalType": "string",
          "name": "cid",
          "type": "string"
        },
        {
          "internalType": "string",
          "name": "community",
          "type": "string"
        }
      ],
      "name": "publishPost",
      "outputs": [],
      "stateMutability": "nonpayable",
      "type": "function"
    },
    {
      "inputs": [
        {
          "internalType": "string",
          "name": "cid",
          "type": "string"
        },
        {
          "internalType": "string",
          "name": "community",
          "type": "string"
        },
        {
          "internalType": "string[]",
          "name": "citedCids",
          "type": "string[]"
        }
      ],
      "name": "publishPostWithCitations",
      "outputs": [],
      "stateMutability": "nonpayable",
      "type": "function"
    },
    {
      "inputs": [],
      "name": "renounceOwnership",
      "outputs": [],
      "stateMutability": "nonpayable",
      "type": "function"
    },
    {
      "inputs": [
        {
          "internalType": "string",
          "name": "cid",
          "type": "string"
        }
      ],
      "name": "restoreContent",
      "outputs": [],
      "stateMutability": "nonpayable",
      "type": "function"
    },
    {
      "inputs": [
        {
          "internalType": "address",
          "name": "newRegistry",
          "type": "address"
        }
      ],
      "name": "setAgentRegistry",
      "outputs": [],
      "stateMutability": "nonpayable",
      "type": "function"
    },
    {
      "inputs": [
        {
          "internalType": "address",
          "name": "newRegistry",
          "type": "address"
        }
      ],
      "name": "setCommunityRegistry",
      "outputs": [],
      "stateMutability": "nonpayable",
      "type": "function"
    },
    {
      "inputs": [
        {
          "internalType": "address",
          "name": "token",
          "type": "address"
        }
      ],
      "name": "setPaymentToken",
      "outputs": [],
      "stateMutability": "nonpayable",
      "type": "function"
    },
    {
      "inputs": [
        {
          "internalType": "uint256",
          "name": "fee",
          "type": "uint256"
        }
      ],
      "name": "setPostFee",
      "outputs": [],
      "stateMutability": "nonpayable",
      "type": "function"
    },
    {
      "inputs": [
        {
          "internalType": "address",
          "name": "newTreasury",
          "type": "address"
        }
      ],
      "name": "setTreasury",
      "outputs": [],
      "stateMutability": "nonpayable",
      "type": "function"
    },
    {
      "inputs": [],
      "name": "totalCitations",
      "outputs": [
        {
          "internalType": "uint256",
          "name": "",
          "type": "uint256"
        }
      ],
      "stateMutability": "view",
      "type": "function"
    },
    {
      "inputs": [],
      "name": "totalContent",
      "outputs": [
        {
          "internalType": "uint256",
          "name": "",
          "type": "uint256"
        }
      ],
      "stateMutability": "view",
      "type": "function"
    },
    {
      "inputs": [
        {
          "internalType": "address",
          "name": "newOwner",
          "type": "address"
        }
      ],
      "name": "transferOwnership",
      "outputs": [],
      "stateMutability": "nonpayable",
      "type": "function"
    },
    {
      "inputs": [],
      "name": "treasury",
      "outputs": [
        {
          "internalType": "address",
          "name": "",
          "type": "address"
        }
      ],
      "stateMutability": "view",
      "type": "function"
    },
    {
      "inputs": [],
      "name": "trustedForwarder",
      "outputs": [
        {
          "internalType": "address",
          "name": "",
          "type": "address"
        }
      ],
      "stateMutability": "view",
      "type": "function"
    },
    {
      "inputs": [],
      "name": "unpause",
      "outputs": [],
      "stateMutability": "nonpayable",
      "type": "function"
    },
    {
      "inputs": [
        {
          "internalType": "address",
          "name": "newImplementation",
          "type": "address"
        },
        {
          "internalType": "bytes",
          "name": "data",
          "type": "bytes"
        }
      ],
      "name": "upgradeToAndCall",
      "outputs": [],
      "stateMutability": "payable",
      "type": "function"
    }
  ],
  "bytecode": "0x60c0604052306080523480156200001557600080fd5b506040516200320c3803806200320c83398101604081905262000038916200010a565b6001600160a01b03811660a0526200004f62000056565b506200013c565b7ff0c57e16840df040f15088dc2f81fe391c3923bec73e23a9662efc9c229c6a00805468010000000000000000900460ff1615620000a75760405163f92ee8a960e01b815260040160405180910390fd5b80546001600160401b0390811614620001075780546001600160401b0319166001600160401b0390811782556040519081527fc7f505b2f371ae2175ee4913f4499e1f2633a7b5936321eed1cdaeb6115181d29060200160405180910390a15b50565b6000602082840312156200011d57600080fd5b81516001600160a01b03811681146200013557600080fd5b9392505050565b60805160a05161308e6200017e600039600081816103ff01528181610533015261217501526000818161184e0152818161187701526119bd015261308e6000f3fe6080604052600436106102465760003560e01c80637a21106311610139578063c0c53b8b116100b6578063f2fde38b1161007a578063f2fde38b14610719578063f3ed333214610739578063fb0c445914610759578063fcf7becf14610786578063fe6708e71461079c578063fefb8dc3146107bc57600080fd5b8063c0c53b8b14610661578063d23b105b14610681578063e975e025146106a1578063eb3df49b146106d9578063f0f44260146106f957600080fd5b80638d18e46d116100fd5780638d18e46d146105ae5780638da5cb5b146105ce5780639e514b4f146105e3578063a200ac8614610603578063ad3cb1cc1461062357600080fd5b80637a211063146105045780637da0a877146105245780638456cb59146105575780638bf04b011461056c5780638c9e1f3c1461058157600080fd5b80634f1ef286116101c757806361d027b31161018b57806361d027b31461047957806369fa15ff146104995780636a326ab1146104b9578063715018a6146104d9578063733b25d6146104ee57600080fd5b80634f1ef286146103ba57806352d1902d146103cd578063572b6c05146103e25780635c975abb1461043f5780635cd8a76b1461046457600080fd5b806326eb4ca81161020e57806326eb4ca81461032f57806328342ecf1461034f5780632c59d1631461036f5780633013ce29146103855780633f4ba83a146103a557600080fd5b8063093b26891461024b5780630d1cfcae1461026d57806310cba553146102aa578063177573d9146102d757806324da3860146102fa575b600080fd5b34801561025757600080fd5b5061026b610266366004612667565b6107dc565b005b34801561027957600080fd5b5060015461028d906001600160a01b031681565b6040516001600160a01b0390911681526020015b60405180910390f35b3480156102b657600080fd5b506102ca6102c5366004612667565b6108b0565b6040516102a191906126a8565b3480156102e357600080fd5b506102ec606481565b6040519081526020016102a1565b34801561030657600080fd5b5061031a610315366004612667565b610945565b604080519283526020830191909152016102a1565b34801561033b57600080fd5b5061026b61034a3660046126ec565b610995565b34801561035b57600080fd5b5061026b61036a366004612721565b6109e3565b34801561037b57600080fd5b506102ec60025481565b34801561039157600080fd5b5060055461028d906001600160a01b031681565b3480156103b157600080fd5b5061026b610a64565b61026b6103c83660046127c7565b610a76565b3480156103d957600080fd5b506102ec610a95565b3480156103ee57600080fd5b5061042f6103fd366004612721565b7f00000000000000000000000000000000000000000000000000000000000000006001600160a01b0390811691161490565b60405190151581526020016102a1565b34801561044b57600080fd5b506000805160206130198339815191525460ff1661042f565b34801561047057600080fd5b5061026b610ab2565b34801561048557600080fd5b5060075461028d906001600160a01b031681565b3480156104a557600080fd5b5061042f6104b4366004612667565b610b73565b3480156104c557600080fd5b5061026b6104d4366004612721565b610bd3565b3480156104e557600080fd5b5061026b610c2d565b3480156104fa57600080fd5b506102ec600c5481565b34801561051057600080fd5b5061042f61051f366004612667565b610c3f565b34801561053057600080fd5b507f000000000000000000000000000000000000000000000000000000000000000061028d565b34801561056357600080fd5b5061026b610c6e565b34801561057857600080fd5b506102ec603281565b34801561058d57600080fd5b506105a161059c366004612667565b610c7e565b6040516102a191906128b0565b3480156105ba57600080fd5b5061026b6105c9366004612931565b610ead565b3480156105da57600080fd5b5061028d610fcc565b3480156105ef57600080fd5b5061026b6105fe366004612a0e565b610ffa565b34801561060f57600080fd5b5060085461028d906001600160a01b031681565b34801561062f57600080fd5b50610654604051806040016040528060058152602001640352e302e360dc1b81525081565b6040516102a19190612a95565b34801561066d57600080fd5b5061026b61067c366004612aa8565b611056565b34801561068d57600080fd5b506102ca61069c366004612667565b611223565b3480156106ad57600080fd5b506102ec6106bc366004612aeb565b805160208183018101805160038252928201919093012091525481565b3480156106e557600080fd5b5061026b6106f4366004612667565b61123c565b34801561070557600080fd5b5061026b610714366004612721565b611305565b34801561072557600080fd5b5061026b610734366004612721565b611386565b34801561074557600080fd5b5061026b610754366004612721565b6113c9565b34801561076557600080fd5b506102ec610774366004612721565b60046020526000908152604090205481565b34801561079257600080fd5b506102ec60065481565b3480156107a857600080fd5b5061026b6107b7366004612b3b565b611423565b3480156107c857600080fd5b5061026b6107d7366004612ba6565b611549565b600082826040516107ee929190612c05565b908152602001604051809103902060040154600003610820576040516315f2470160e31b815260040160405180910390fd5b61082a828261158e565b600080838360405161083d929190612c05565b908152604051908190036020019020600501805491151560ff1990921691909117905561086861177a565b6001600160a01b03167ffe51839b1ad9a2976f587a47227ab3c655e7714a6a4632cb5dfbfd3f7cf794168383426040516108a493929190612c3e565b60405180910390a25050565b6060600b600084846040516020016108c9929190612c62565b60405160208183030381529060405280519060200120815260200190815260200160002080548060200260200160405190810160405280929190818152602001828054801561093757602002820191906000526020600020905b815481526020019060010190808311610923575b505050505090505b92915050565b6000806000848460405160200161095d929190612c62565b60408051601f19818403018152918152815160209283012060009081526009835281812054600b909352205490969095509350505050565b61099d611789565b600680549082905560408051828152602081018490527ff3c1e4ad4ef34fa98c8b9ef2f201969ad71546d01acbb2f562b97bd7b95c6a7e91015b60405180910390a15050565b6109eb611789565b6001600160a01b038116610a125760405163d92e233d60e01b815260040160405180910390fd5b600180546001600160a01b038381166001600160a01b0319831681179093556040519116919082907f29d43d615aa13e2afae5605639201aa6571c7d1ec3bec3eb4a33605f8d0db26490600090a35050565b610a6c611789565b610a746117dd565b565b610a7e611843565b610a87826118e8565b610a9182826118f0565b5050565b6000610a9f6119b2565b50600080516020612ff983398151915290565b7ff0c57e16840df040f15088dc2f81fe391c3923bec73e23a9662efc9c229c6a00805460029190600160401b900460ff1680610afb575080546001600160401b03808416911610155b15610b195760405163f92ee8a960e01b815260040160405180910390fd5b805468ffffffffffffffffff19166001600160401b038316908117600160401b1760ff60401b191682556040519081527fc7f505b2f371ae2175ee4913f4499e1f2633a7b5936321eed1cdaeb6115181d2906020016109d7565b6000808383604051610b86929190612c05565b908152602001604051809103902060040154600014158015610bcc575060008383604051610bb5929190612c05565b9081526040519081900360200190206005015460ff165b9392505050565b610bdb611789565b600580546001600160a01b038381166001600160a01b0319831681179093556040519116919082907f5efdfedf5aef119c431263f0656093045dffdf44b3d8f1b0f158dc295c3a0f8e90600090a35050565b610c35611789565b610a7460006119fb565b6000808383604051610c52929190612c05565b9081526040519081900360200190206004015415159392505050565b610c76611789565b610a74611a6c565b610cb66040805160c0810182526000808252606060208301529091820190815260606020820181905260006040830181905291015290565b60008383604051610cc8929190612c05565b908152602001604051809103902060040154600003610cfa576040516315f2470160e31b815260040160405180910390fd5b60008383604051610d0c929190612c05565b90815260408051918290036020908101832060c0840190925281546001600160a01b0316835260018201805491840191610d4590612c76565b80601f0160208091040260200160405190810160405280929190818152602001828054610d7190612c76565b8015610dbe5780601f10610d9357610100808354040283529160200191610dbe565b820191906000526020600020905b815481529060010190602001808311610da157829003601f168201915b5050509183525050600282015460209091019060ff166001811115610de557610de5612878565b6001811115610df657610df6612878565b8152602001600382018054610e0a90612c76565b80601f0160208091040260200160405190810160405280929190818152602001828054610e3690612c76565b8015610e835780601f10610e5857610100808354040283529160200191610e83565b820191906000526020600020905b815481529060010190602001808311610e6657829003601f168201915b50505091835250506004820154602082015260059091015460ff1615156040909101529392505050565b610eb5611ab7565b610ebd611ae8565b6000819003610edf5760405163ecd7b0d160e01b815260040160405180910390fd5b60008282604051610ef1929190612c05565b908152602001604051809103902060040154600003610f23576040516315f2470160e31b815260040160405180910390fd5b60008282604051610f35929190612c05565b9081526040519081900360200190206005015460ff16610f68576040516374e73b6d60e01b815260040160405180910390fd5b610fad86868686600187878080601f016020809104026020016040519081016040528093929190818152602001838380828437600092019190915250611b2092505050565b610fc4600160008051602061303983398151915255565b505050505050565b7f9016d09d72d40fdae2fd8ceac6b6234c7706214fd39c1cd1e609a0528c199300546001600160a01b031690565b611002611ab7565b61100a611ae8565b603281111561102c576040516315d10edf60e11b815260040160405180910390fd5b61104a86868686600060405180602001604052806000815250611b20565b610fad86868484611f73565b7ff0c57e16840df040f15088dc2f81fe391c3923bec73e23a9662efc9c229c6a008054600160401b810460ff1615906001600160401b031660008115801561109b5750825b90506000826001600160401b031660011480156110b75750303b155b9050811580156110c5575080155b156110e35760405163f92ee8a960e01b815260040160405180910390fd5b845467ffffffffffffffff19166001178555831561110d57845460ff60401b1916600160401b1785555b6001600160a01b0388166111345760405163d92e233d60e01b815260040160405180910390fd5b6001600160a01b03871661115b5760405163d92e233d60e01b815260040160405180910390fd5b6001600160a01b0386166111825760405163d92e233d60e01b815260040160405180910390fd5b61118b8861212c565b61119361213d565b61119b61214d565b6111a361215d565b600180546001600160a01b03808a166001600160a01b0319928316179092556007805492891692909116919091179055831561121957845460ff60401b19168555604051600181527fc7f505b2f371ae2175ee4913f4499e1f2633a7b5936321eed1cdaeb6115181d29060200160405180910390a15b5050505050505050565b60606009600084846040516020016108c9929190612c62565b6000828260405161124e929190612c05565b908152602001604051809103902060040154600003611280576040516315f2470160e31b815260040160405180910390fd5b61128a828261158e565b60016000838360405161129e929190612c05565b908152604051908190036020019020600501805491151560ff199092169190911790556112c961177a565b6001600160a01b03167f501a2c382b0208a7241c4da3c55dcf87d53cd0e170b3a297c34c454e3a5363e08383426040516108a493929190612c3e565b61130d611789565b6001600160a01b0381166113345760405163d92e233d60e01b815260040160405180910390fd5b600780546001600160a01b038381166001600160a01b0319831681179093556040519116919082907f4ab5be82436d353e61ca18726e984e561f5c1cc7c6d38b29d2553c790434705a90600090a35050565b61138e611789565b6001600160a01b0381166113bd57604051631e4fbdf760e01b8152600060048201526024015b60405180910390fd5b6113c6816119fb565b50565b6113d1611789565b600880546001600160a01b038381166001600160a01b0319831681179093556040519116919082907fdb3b23467d90b9439d95bdc0f549939acb2a40affed0ed6aa1c11a5c108c9d9b90600090a35050565b61142b611ab7565b611433611ae8565b60008484604051611445929190612c05565b908152602001604051809103902060040154600003611477576040516315f2470160e31b815260040160405180910390fd5b6032811115611499576040516315d10edf60e11b815260040160405180910390fd5b60006114a361177a565b9050806001600160a01b0316600086866040516114c1929190612c05565b908152604051908190036020019020546001600160a01b03161480159061150157506114eb610fcc565b6001600160a01b0316816001600160a01b031614155b1561151f5760405163ea8e4eb560e01b815260040160405180910390fd5b61152b85858585611f73565b50611543600160008051602061303983398151915255565b50505050565b611551611ab7565b611559611ae8565b61157784848484600060405180602001604052806000815250611b20565b611543600160008051602061303983398151915255565b600061159861177a565b90506115a2610fcc565b6001600160a01b0316816001600160a01b0316036115bf57505050565b6008546001600160a01b0316156117615760008084846040516115e3929190612c05565b908152602001604051809103902060010180546115ff90612c76565b80601f016020809104026020016040519081016040528092919081815260200182805461162b90612c76565b80156116785780601f1061164d57610100808354040283529160200191611678565b820191906000526020600020905b81548152906001019060200180831161165b57829003601f168201915b50506008546040519495506000948594506001600160a01b0390911692506116a7915085908790602401612cb0565b60408051601f198184030181529181526020820180516001600160e01b0316630c9f8d6360e41b179052516116dc9190612cda565b600060405180830381855afa9150503d8060008114611717576040519150601f19603f3d011682016040523d82523d6000602084013e61171c565b606091505b509150915081801561172f575060008151115b1561175d5760008180602001905181019061174a9190612cf6565b9050801561175b5750505050505050565b505b5050505b60405163ea8e4eb560e01b815260040160405180910390fd5b6000611784612165565b905090565b61179161177a565b6001600160a01b03166117a2610fcc565b6001600160a01b031614610a74576117b861177a565b60405163118cdaa760e01b81526001600160a01b0390911660048201526024016113b4565b6117e56121da565b600080516020613019833981519152805460ff191681557f5db9ee0a495bf2e6ff9c91a7834c1ba4fdd244a5e8aa4e537bd38aeae4b073aa61182561177a565b6040516001600160a01b03909116815260200160405180910390a150565b306001600160a01b037f00000000000000000000000000000000000000000000000000000000000000001614806118ca57507f00000000000000000000000000000000000000000000000000000000000000006001600160a01b03166118be600080516020612ff9833981519152546001600160a01b031690565b6001600160a01b031614155b15610a745760405163703e46dd60e11b815260040160405180910390fd5b6113c6611789565b816001600160a01b03166352d1902d6040518163ffffffff1660e01b8152600401602060405180830381865afa92505050801561194a575060408051601f3d908101601f1916820190925261194791810190612d18565b60015b61197257604051634c9c8ce360e01b81526001600160a01b03831660048201526024016113b4565b600080516020612ff983398151915281146119a357604051632a87526960e21b8152600481018290526024016113b4565b6119ad838361220a565b505050565b306001600160a01b037f00000000000000000000000000000000000000000000000000000000000000001614610a745760405163703e46dd60e11b815260040160405180910390fd5b7f9016d09d72d40fdae2fd8ceac6b6234c7706214fd39c1cd1e609a0528c19930080546001600160a01b031981166001600160a01b03848116918217845560405192169182907f8be0079c531659141344cd1fd0a4f28419497f9722a3daafe3b4186f6b6457e090600090a3505050565b611a74611ab7565b600080516020613019833981519152805460ff191660011781557f62e78cea01bee320cd4e420270b5ea74000d11b0c9f74754ebdbfc544b05a25861182561177a565b6000805160206130198339815191525460ff1615610a745760405163d93c066560e01b815260040160405180910390fd5b600080516020613039833981519152805460011901611b1a57604051633ee5aeb560e01b815260040160405180910390fd5b60029055565b6000859003611b425760405163ecd7b0d160e01b815260040160405180910390fd5b6000839003611b645760405163ecd7b0d160e01b815260040160405180910390fd5b6064831115611b86576040516307b7d30d60e51b815260040160405180910390fd5b60008686604051611b98929190612c05565b908152602001604051809103902060040154600014611bca57604051630d95af1160e11b815260040160405180910390fd5b6000611bd461177a565b9050611bdf81612260565b6008546001600160a01b031615611cf75760085460405160009182916001600160a01b0390911690611c1990899089908790602401612d31565b60408051601f198184030181529181526020820180516001600160e01b031663bb5ff03d60e01b17905251611c4e9190612cda565b600060405180830381855afa9150503d8060008114611c89576040519150601f19603f3d011682016040523d82523d6000602084013e611c8e565b606091505b5091509150811580611c9f57508051155b15611cbd5760405163082b915160e11b815260040160405180910390fd5b600081806020019051810190611cd39190612cf6565b905080611cf35760405163082b915160e11b815260040160405180910390fd5b5050505b6040518060c00160405280826001600160a01b0316815260200186868080601f016020809104026020016040519081016040528093929190818152602001838380828437600092019190915250505090825250602001846001811115611d5f57611d5f612878565b81526020018381526020014281526020016001151581525060008888604051611d89929190612c05565b90815260405160209181900382019020825181546001600160a01b0319166001600160a01b03909116178155908201516001820190611dc89082612da5565b50604082015160028201805460ff191660018381811115611deb57611deb612878565b021790555060608201516003820190611e049082612da5565b506080820151600482015560a0909101516005909101805460ff191691151591909117905560028054906000611e3983612e7a565b919050555060038585604051611e50929190612c05565b9081526040519081900360200190208054906000611e6d83612e7a565b90915550506001600160a01b0381166000908152600460205260408120805491611e9683612e7a565b9190505550806001600160a01b03168787604051602001611eb8929190612c62565b604051602081830303815290604052805190602001207fc3f79a610882405a280f1cd465b1f91051c1b5271d9930236f3bd1204ac259f789898989898942604051611f099796959493929190612e93565b60405180910390a36005546001600160a01b031615801590611f2d57506000600654115b15611f5657600754600654600554611f56926001600160a01b039182169285929091169061235b565b50505050505050565b600160008051602061303983398151915255565b60008484604051602001611f88929190612c62565b60405160208183030381529060405280519060200120905060005b82811015610fc457366000858584818110611fc057611fc0612ef0565b9050602002810190611fd29190612f06565b90925090506000819003611ff95760405163ecd7b0d160e01b815260040160405180910390fd5b6000828260405160200161200e929190612c62565b60405160208183030381529060405280519060200120905080850361204657604051637756857b60e11b815260040160405180910390fd5b6000858152600a6020908152604080832084845290915290205460ff161561207057505050612124565b6000858152600a602090815260408083208484528252808320805460ff19166001908117909155888452600983528184208054808301825590855283852001859055848452600b835290832080549182018155835290822001869055600c8054916120da83612e7a565b919050555080857ff68aafc81d9e99738c1d35163a027550cb2307b231a6b2b3b3d5b553f1935f208b8b878742604051612118959493929190612f4c565b60405180910390a35050505b600101611fa3565b6121346123b5565b6113c6816123fe565b6121456123b5565b610a74612406565b6121556123b5565b610a74612427565b610a746123b5565b6000366014336001600160a01b037f0000000000000000000000000000000000000000000000000000000000000000161480156121a25750808210155b156121d2576000366121b48385612f86565b6121bf928290612f99565b6121c891612fc3565b60601c9250505090565b339250505090565b6000805160206130198339815191525460ff16610a7457604051638dfc202b60e01b815260040160405180910390fd5b6122138261242f565b6040516001600160a01b038316907fbc7cd75a20ee27fd9adebab32041f755214dbc6bffa90cc0225b39da2e5c2d3b90600090a2805115612258576119ad8282612494565b610a9161250a565b6001546040516001600160a01b038381166024830152600092839291169060440160408051601f198184030181529181526020820180516001600160e01b03166332f0f23360e11b179052516122b69190612cda565b600060405180830381855afa9150503d80600081146122f1576040519150601f19603f3d011682016040523d82523d6000602084013e6122f6565b606091505b509150915081158061230757508051155b1561232557604051637b5b95df60e11b815260040160405180910390fd5b60008180602001905181019061233b9190612cf6565b90508061154357604051637b5b95df60e11b815260040160405180910390fd5b604080516001600160a01b0385811660248301528416604482015260648082018490528251808303909101815260849091019091526020810180516001600160e01b03166323b872dd60e01b179052611543908590612529565b7ff0c57e16840df040f15088dc2f81fe391c3923bec73e23a9662efc9c229c6a0054600160401b900460ff16610a7457604051631afcd79f60e31b815260040160405180910390fd5b61138e6123b5565b61240e6123b5565b600080516020613019833981519152805460ff19169055565b611f5f6123b5565b806001600160a01b03163b60000361246557604051634c9c8ce360e01b81526001600160a01b03821660048201526024016113b4565b600080516020612ff983398151915280546001600160a01b0319166001600160a01b0392909216919091179055565b6060600080846001600160a01b0316846040516124b19190612cda565b600060405180830381855af49150503d80600081146124ec576040519150601f19603f3d011682016040523d82523d6000602084013e6124f1565b606091505b509150915061250185838361259a565b95945050505050565b3415610a745760405163b398979f60e01b815260040160405180910390fd5b600080602060008451602086016000885af18061254c576040513d6000823e3d81fd5b50506000513d91508115612564578060011415612571565b6001600160a01b0384163b155b1561154357604051635274afe760e01b81526001600160a01b03851660048201526024016113b4565b6060826125af576125aa826125f6565b610bcc565b81511580156125c657506001600160a01b0384163b155b156125ef57604051639996b31560e01b81526001600160a01b03851660048201526024016113b4565b5092915050565b8051156126065780518082602001fd5b60405163d6bda27560e01b815260040160405180910390fd5b60008083601f84011261263157600080fd5b5081356001600160401b0381111561264857600080fd5b60208301915083602082850101111561266057600080fd5b9250929050565b6000806020838503121561267a57600080fd5b82356001600160401b0381111561269057600080fd5b61269c8582860161261f565b90969095509350505050565b6020808252825182820181905260009190848201906040850190845b818110156126e0578351835292840192918401916001016126c4565b50909695505050505050565b6000602082840312156126fe57600080fd5b5035919050565b80356001600160a01b038116811461271c57600080fd5b919050565b60006020828403121561273357600080fd5b610bcc82612705565b634e487b7160e01b600052604160045260246000fd5b60006001600160401b038084111561276c5761276c61273c565b604051601f8501601f19908116603f011681019082821181831017156127945761279461273c565b816040528093508581528686860111156127ad57600080fd5b858560208301376000602087830101525050509392505050565b600080604083850312156127da57600080fd5b6127e383612705565b915060208301356001600160401b038111156127fe57600080fd5b8301601f8101851361280f57600080fd5b61281e85823560208401612752565b9150509250929050565b60005b8381101561284357818101518382015260200161282b565b50506000910152565b60008151808452612864816020860160208601612828565b601f01601f19169290920160200192915050565b634e487b7160e01b600052602160045260246000fd5b600281106128ac57634e487b7160e01b600052602160045260246000fd5b9052565b602080825282516001600160a01b03168282015282015160c060408301526000906128de60e084018261284c565b905060408401516128f2606085018261288e565b506060840151838203601f1901608085015261290e828261284c565b915050608084015160a084015260a0840151151560c08401528091505092915050565b6000806000806000806060878903121561294a57600080fd5b86356001600160401b038082111561296157600080fd5b61296d8a838b0161261f565b9098509650602089013591508082111561298657600080fd5b6129928a838b0161261f565b909650945060408901359150808211156129ab57600080fd5b506129b889828a0161261f565b979a9699509497509295939492505050565b60008083601f8401126129dc57600080fd5b5081356001600160401b038111156129f357600080fd5b6020830191508360208260051b850101111561266057600080fd5b60008060008060008060608789031215612a2757600080fd5b86356001600160401b0380821115612a3e57600080fd5b612a4a8a838b0161261f565b90985096506020890135915080821115612a6357600080fd5b612a6f8a838b0161261f565b90965094506040890135915080821115612a8857600080fd5b506129b889828a016129ca565b602081526000610bcc602083018461284c565b600080600060608486031215612abd57600080fd5b612ac684612705565b9250612ad460208501612705565b9150612ae260408501612705565b90509250925092565b600060208284031215612afd57600080fd5b81356001600160401b03811115612b1357600080fd5b8201601f81018413612b2457600080fd5b612b3384823560208401612752565b949350505050565b60008060008060408587031215612b5157600080fd5b84356001600160401b0380821115612b6857600080fd5b612b748883890161261f565b90965094506020870135915080821115612b8d57600080fd5b50612b9a878288016129ca565b95989497509550505050565b60008060008060408587031215612bbc57600080fd5b84356001600160401b0380821115612bd357600080fd5b612bdf8883890161261f565b90965094506020870135915080821115612bf857600080fd5b50612b9a8782880161261f565b8183823760009101908152919050565b81835281816020850137506000828201602090810191909152601f909101601f19169091010190565b604081526000612c52604083018587612c15565b9050826020830152949350505050565b602081526000612b33602083018486612c15565b600181811c90821680612c8a57607f821691505b602082108103612caa57634e487b7160e01b600052602260045260246000fd5b50919050565b604081526000612cc3604083018561284c565b905060018060a01b03831660208301529392505050565b60008251612cec818460208701612828565b9190910192915050565b600060208284031215612d0857600080fd5b81518015158114610bcc57600080fd5b600060208284031215612d2a57600080fd5b5051919050565b604081526000612d45604083018587612c15565b905060018060a01b0383166020830152949350505050565b601f8211156119ad576000816000526020600020601f850160051c81016020861015612d865750805b601f850160051c820191505b81811015610fc457828155600101612d92565b81516001600160401b03811115612dbe57612dbe61273c565b612dd281612dcc8454612c76565b84612d5d565b602080601f831160018114612e075760008415612def5750858301515b600019600386901b1c1916600185901b178555610fc4565b600085815260208120601f198616915b82811015612e3657888601518255948401946001909101908401612e17565b5085821015612e545787850151600019600388901b60f8161c191681555b5050505050600190811b01905550565b634e487b7160e01b600052601160045260246000fd5b600060018201612e8c57612e8c612e64565b5060010190565b60a081526000612ea760a08301898b612c15565b8281036020840152612eba81888a612c15565b9050612ec9604084018761288e565b8281036060840152612edb818661284c565b91505082608083015298975050505050505050565b634e487b7160e01b600052603260045260246000fd5b6000808335601e19843603018112612f1d57600080fd5b8301803591506001600160401b03821115612f3757600080fd5b60200191503681900382131561266057600080fd5b606081526000612f60606083018789612c15565b8281036020840152612f73818688612c15565b9150508260408301529695505050505050565b8181038181111561093f5761093f612e64565b60008085851115612fa957600080fd5b83861115612fb657600080fd5b5050820193919092039150565b6bffffffffffffffffffffffff198135818116916014851015612ff05780818660140360031b1b83161692505b50509291505056fe360894a13ba1a3210667c828492db98dca3e2076cc3735a920a3ca505d382bbccd5ed15c6e187e77e9aee88184c21f4f2182ab5827cb3b7e07fbedcd63f033009b779b17422d0df92223018b32b4d1fa46e071723d6817e2486d003becc55f00a2646970667358221220ee8ceba7806565ad764b4771b3de5b0f4d0d936369720bcf018223f5010dab8264736f6c63430008180033",
  "linkReferences": {},
  "deployedLinkReferences": {}
}