{
  "_format": "hh-sol-artifact-1",
  "contractName": "KnowledgeBundle",
  "sourceName": "contracts/KnowledgeBundle.sol",
  "abi": [
    {
      "inputs": [
        {
          "internalType": "address",
          "name": "trustedForwarder_",
          "type": "address"
        }
      ],
      "stateMutability": "nonpayable",
      "type": "constructor"
    },
    {
      "inputs": [
        {
          "internalType": "address",
          "name": "target",
          "type": "address"
        }
      ],
      "name": "AddressEmptyCode",
      "type": "error"
    },
    {
      "inputs": [],
      "name": "BundleNotActive",
      "type": "error"
    },
    {
      "inputs": [],
      "name": "BundleNotFound",
      "type": "error"
    },
    {
      "inputs": [],
      "name": "ContentNotFound",
      "type": "error"
    },
    {
      "inputs": [
        {
          "internalType": "address",
          "name": "implementation",
          "type": "address"
        }
      ],
      "name": "ERC1967InvalidImplementation",
      "type": "error"
    },
    {
      "inputs": [],
      "name": "ERC1967NonPayable",
      "type": "error"
    },
    {
      "inputs": [],
      "name": "EmptyBundle",
      "type": "error"
    },
    {
      "inputs": [],
      "name": "EnforcedPause",
      "type": "error"
    },
    {
      "inputs": [],
      "name": "ExpectedPause",
      "type": "error"
    },
    {
      "inputs": [],
      "name": "FailedCall",
      "type": "error"
    },
    {
      "inputs": [],
      "name": "InvalidInitialization",
      "type": "error"
    },
    {
      "inputs": [],
      "name": "InvalidWeights",
      "type": "error"
    },
    {
      "inputs": [],
      "name": "NotBundleCreator",
      "type": "error"
    },
    {
      "inputs": [],
      "name": "NotInitializing",
      "type": "error"
    },
    {
      "inputs": [],
      "name": "NotRegisteredAgent",
      "type": "error"
    },
    {
      "inputs": [
        {
          "internalType": "address",
          "name": "owner",
          "type": "address"
        }
      ],
      "name": "OwnableInvalidOwner",
      "type": "error"
    },
    {
      "inputs": [
        {
          "internalType": "address",
          "name": "account",
          "type": "address"
        }
      ],
      "name": "OwnableUnauthorizedAccount",
      "type": "error"
    },
    {
      "inputs": [],
      "name": "ReentrancyGuardReentrantCall",
      "type": "error"
    },
    {
      "inputs": [],
      "name": "TooManyCids",
      "type": "error"
    },
    {
      "inputs": [],
      "name": "UUPSUnauthorizedCallContext",
      "type": "error"
    },
    {
      "inputs": [
        {
          "internalType": "bytes32",
          "name": "slot",
          "type": "bytes32"
        }
      ],
      "name": "UUPSUnsupportedProxiableUUID",
      "type": "error"
    },
    {
      "inputs": [],
      "name": "ZeroAddress",
      "type": "error"
    },
    {
      "anonymous": false,
      "inputs": [
        {
          "indexed": true,
          "internalType": "uint256",
          "name": "bundleId",
          "type": "uint256"
        },
        {
          "indexed": false,
          "internalType": "uint256",
          "name": "addedCount",
          "type": "uint256"
        },
        {
          "indexed": false,
          "internalType": "uint256",
          "name": "newTotalCount",
          "type": "uint256"
        }
      ],
      "name": "BundleContentAdded",
      "type": "event"
    },
    {
      "anonymous": false,
      "inputs": [
        {
          "indexed": true,
          "internalType": "uint256",
          "name": "bundleId",
          "type": "uint256"
        },
        {
          "indexed": false,
          "internalType": "uint256",
          "name": "removedCount",
          "type": "uint256"
        }
      ],
      "name": "BundleContentRemoved",
      "type": "event"
    },
    {
      "anonymous": false,
      "inputs": [
        {
          "indexed": true,
          "internalType": "uint256",
          "name": "bundleId",
          "type": "uint256"
        },
        {
          "indexed": true,
          "internalType": "address",
          "name": "creator",
          "type": "address"
        },
        {
          "indexed": false,
          "internalType": "string",
          "name": "name",
          "type": "string"
        },
        {
          "indexed": false,
          "internalType": "uint256",
          "name": "cidCount",
          "type": "uint256"
        },
        {
          "indexed": false,
          "internalType": "uint256",
          "name": "timestamp",
          "type": "uint256"
        }
      ],
      "name": "BundleCreated",
      "type": "event"
    },
    {
      "anonymous": false,
      "inputs": [
        {
          "indexed": true,
          "internalType": "uint256",
          "name": "bundleId",
          "type": "uint256"
        }
      ],
      "name": "BundleDeactivated",
      "type": "event"
    },
    {
      "anonymous": false,
      "inputs": [
        {
          "indexed": true,
          "internalType": "uint256",
          "name": "bundleId",
          "type": "uint256"
        },
        {
          "indexed": true,
          "internalType": "address",
          "name": "contributor",
          "type": "address"
        },
        {
          "indexed": false,
          "internalType": "uint16",
          "name": "weightBps",
          "type": "uint16"
        }
      ],
      "name": "ContributorWeightSet",
      "type": "event"
    },
    {
      "anonymous": false,
      "inputs": [
        {
          "indexed": true,
          "internalType": "uint256",
          "name": "bundleId",
          "type": "uint256"
        },
        {
          "indexed": false,
          "internalType": "uint256",
          "name": "contributorCount",
          "type": "uint256"
        }
      ],
      "name": "ContributorWeightsSet",
      "type": "event"
    },
    {
      "anonymous": false,
      "inputs": [
        {
          "indexed": false,
          "internalType": "uint64",
          "name": "version",
          "type": "uint64"
        }
      ],
      "name": "Initialized",
      "type": "event"
    },
    {
      "anonymous": false,
      "inputs": [
        {
          "indexed": true,
          "internalType": "address",
          "name": "previousOwner",
          "type": "address"
        },
        {
          "indexed": true,
          "internalType": "address",
          "name": "newOwner",
          "type": "address"
        }
      ],
      "name": "OwnershipTransferred",
      "type": "event"
    },
    {
      "anonymous": false,
      "inputs": [
        {
          "indexed": false,
          "internalType": "address",
          "name": "account",
          "type": "address"
        }
      ],
      "name": "Paused",
      "type": "event"
    },
    {
      "anonymous": false,
      "inputs": [
        {
          "indexed": false,
          "internalType": "address",
          "name": "account",
          "type": "address"
        }
      ],
      "name": "Unpaused",
      "type": "event"
    },
    {
      "anonymous": false,
      "inputs": [
        {
          "indexed": true,
          "internalType": "address",
          "name": "implementation",
          "type": "address"
        }
      ],
      "name": "Upgraded",
      "type": "event"
    },
    {
      "inputs": [],
      "name": "MAX_CIDS_PER_CALL",
      "outputs": [
        {
          "internalType": "uint256",
          "name": "",
          "type": "uint256"
        }
      ],
      "stateMutability": "view",
      "type": "function"
    },
    {
      "inputs": [],
      "name": "UPGRADE_INTERFACE_VERSION",
      "outputs": [
        {
          "internalType": "string",
          "name": "",
          "type": "string"
        }
      ],
      "stateMutability": "view",
      "type": "function"
    },
    {
      "inputs": [
        {
          "internalType": "uint256",
          "name": "bundleId",
          "type": "uint256"
        },
        {
          "internalType": "string[]",
          "name": "cids",
          "type": "string[]"
        }
      ],
      "name": "addContent",
      "outputs": [],
      "stateMutability": "nonpayable",
      "type": "function"
    },
    {
      "inputs": [],
      "name": "agentRegistry",
      "outputs": [
        {
          "internalType": "address",
          "name": "",
          "type": "address"
        }
      ],
      "stateMutability": "view",
      "type": "function"
    },
    {
      "inputs": [],
      "name": "contentIndex",
      "outputs": [
        {
          "internalType": "address",
          "name": "",
          "type": "address"
        }
      ],
      "stateMutability": "view",
      "type": "function"
    },
    {
      "inputs": [
        {
          "internalType": "string",
          "name": "name",
          "type": "string"
        },
        {
          "internalType": "string",
          "name": "descriptionCid",
          "type": "string"
        },
        {
          "internalType": "string[]",
          "name": "cids",
          "type": "string[]"
        },
        {
          "components": [
            {
              "internalType": "address",
              "name": "contributor",
              "type": "address"
            },
            {
              "internalType": "uint16",
              "name": "weightBps",
              "type": "uint16"
            }
          ],
          "internalType": "struct KnowledgeBundle.ContributorWeight[]",
          "name": "contributors",
          "type": "tuple[]"
        }
      ],
      "name": "createBundle",
      "outputs": [
        {
          "internalType": "uint256",
          "name": "bundleId",
          "type": "uint256"
        }
      ],
      "stateMutability": "nonpayable",
      "type": "function"
    },
    {
      "inputs": [
        {
          "internalType": "uint256",
          "name": "bundleId",
          "type": "uint256"
        }
      ],
      "name": "deactivateBundle",
      "outputs": [],
      "stateMutability": "nonpayable",
      "type": "function"
    },
    {
      "inputs": [
        {
          "internalType": "uint256",
          "name": "bundleId",
          "type": "uint256"
        }
      ],
      "name": "getBundle",
      "outputs": [
        {
          "components": [
            {
              "internalType": "address",
              "name": "creator",
              "type": "address"
            },
            {
              "internalType": "string",
              "name": "name",
              "type": "string"
            },
            {
              "internalType": "string",
              "name": "descriptionCid",
              "type": "string"
            },
            {
              "internalType": "string[]",
              "name": "contentCids",
              "type": "string[]"
            },
            {
              "components": [
                {
                  "internalType": "address",
                  "name": "contributor",
                  "type": "address"
                },
                {
                  "internalType": "uint16",
                  "name": "weightBps",
                  "type": "uint16"
                }
              ],
              "internalType": "struct KnowledgeBundle.ContributorWeight[]",
              "name": "contributors",
              "type": "tuple[]"
            },
            {
              "internalType": "uint256",
              "name": "createdAt",
              "type": "uint256"
            },
            {
              "internalType": "bool",
              "name": "isActive",
              "type": "bool"
            }
          ],
          "internalType": "struct KnowledgeBundle.Bundle",
          "name": "",
          "type": "tuple"
        }
      ],
      "stateMutability": "view",
      "type": "function"
    },
    {
      "inputs": [
        {
          "internalType": "uint256",
          "name": "bundleId",
          "type": "uint256"
        }
      ],
      "name": "getBundleContent",
      "outputs": [
        {
          "internalType": "string[]",
          "name": "",
          "type": "string[]"
        }
      ],
      "stateMutability": "view",
      "type": "function"
    },
    {
      "inputs": [
        {
          "internalType": "uint256",
          "name": "bundleId",
          "type": "uint256"
        }
      ],
      "name": "getBundleContributors",
      "outputs": [
        {
          "components": [
            {
              "internalType": "address",
              "name": "contributor",
              "type": "address"
            },
            {
              "internalType": "uint16",
              "name": "weightBps",
              "type": "uint16"
            }
          ],
          "internalType": "struct KnowledgeBundle.ContributorWeight[]",
          "name": "",
          "type": "tuple[]"
        }
      ],
      "stateMutability": "view",
      "type": "function"
    },
    {
      "inputs": [],
      "name": "getBundleCount",
      "outputs": [
        {
          "internalType": "uint256",
          "name": "",
          "type": "uint256"
        }
      ],
      "stateMutability": "view",
      "type": "function"
    },
    {
      "inputs": [
        {
          "internalType": "address",
          "name": "owner_",
          "type": "address"
        },
        {
          "internalType": "address",
          "name": "agentRegistry_",
          "type": "address"
        },
        {
          "internalType": "address",
          "name": "contentIndex_",
          "type": "address"
        }
      ],
      "name": "initialize",
      "outputs": [],
      "stateMutability": "nonpayable",
      "type": "function"
    },
    {
      "inputs": [
        {
          "internalType": "uint256",
          "name": "bundleId",
          "type": "uint256"
        }
      ],
      "name": "isBundleActive",
      "outputs": [
        {
          "internalType": "bool",
          "name": "",
          "type": "bool"
        }
      ],
      "stateMutability": "view",
      "type": "function"
    },
    {
      "inputs": [
        {
          "internalType": "address",
          "name": "forwarder",
          "type": "address"
        }
      ],
      "name": "isTrustedForwarder",
      "outputs": [
        {
          "internalType": "bool",
          "name": "",
          "type": "bool"
        }
      ],
      "stateMutability": "view",
      "type": "function"
    },
    {
      "inputs": [],
      "name": "owner",
      "outputs": [
        {
          "internalType": "address",
          "name": "",
          "type": "address"
        }
      ],
      "stateMutability": "view",
      "type": "function"
    },
    {
      "inputs": [],
      "name": "pause",
      "outputs": [],
      "stateMutability": "nonpayable",
      "type": "function"
    },
    {
      "inputs": [],
      "name": "paused",
      "outputs": [
        {
          "internalType": "bool",
          "name": "",
          "type": "bool"
        }
      ],
      "stateMutability": "view",
      "type": "function"
    },
    {
      "inputs": [],
      "name": "proxiableUUID",
      "outputs": [
        {
          "internalType": "bytes32",
          "name": "",
          "type": "bytes32"
        }
      ],
      "stateMutability": "view",
      "type": "function"
    },
    {
      "inputs": [
        {
          "internalType": "uint256",
          "name": "bundleId",
          "type": "uint256"
        },
        {
          "internalType": "string[]",
          "name": "cids",
          "type": "string[]"
        }
      ],
      "name": "removeContent",
      "outputs": [],
      "stateMutability": "nonpayable",
      "type": "function"
    },
    {
      "inputs": [],
      "name": "renounceOwnership",
      "outputs": [],
      "stateMutability": "nonpayable",
      "type": "function"
    },
    {
      "inputs": [
        {
          "internalType": "address",
          "name": "newRegistry",
          "type": "address"
        }
      ],
      "name": "setAgentRegistry",
      "outputs": [],
      "stateMutability": "nonpayable",
      "type": "function"
    },
    {
      "inputs": [
        {
          "internalType": "address",
          "name": "newContentIndex",
          "type": "address"
        }
      ],
      "name": "setContentIndex",
      "outputs": [],
      "stateMutability": "nonpayable",
      "type": "function"
    },
    {
      "inputs": [
        {
          "internalType": "uint256",
          "name": "bundleId",
          "type": "uint256"
        },
        {
          "components": [
            {
              "internalType": "address",
              "name": "contributor",
              "type": "address"
            },
            {
              "internalType": "uint16",
              "name": "weightBps",
              "type": "uint16"
            }
          ],
          "internalType": "struct KnowledgeBundle.ContributorWeight[]",
          "name": "contributors",
          "type": "tuple[]"
        }
      ],
      "name": "setContributorWeights",
      "outputs": [],
      "stateMutability": "nonpayable",
      "type": "function"
    },
    {
      "inputs": [
        {
          "internalType": "address",
          "name": "newOwner",
          "type": "address"
        }
      ],
      "name": "transferOwnership",
      "outputs": [],
      "stateMutability": "nonpayable",
      "type": "function"
    },
    {
      "inputs": [],
      "name": "trustedForwarder",
      "outputs": [
        {
          "internalType": "address",
          "name": "",
          "type": "address"
        }
      ],
      "stateMutability": "view",
      "type": "function"
    },
    {
      "inputs": [],
      "name": "unpause",
      "outputs": [],
      "stateMutability": "nonpayable",
      "type": "function"
    },
    {
      "inputs": [
        {
          "internalType": "address",
          "name": "newImplementation",
          "type": "address"
        },
        {
          "internalType": "bytes",
          "name": "data",
          "type": "bytes"
        }
      ],
      "name": "upgradeToAndCall",
      "outputs": [],
      "stateMutability": "payable",
      "type": "function"
    }
  ],
  "bytecode": "0x60c0604052306080523480156200001557600080fd5b5060405162002d0738038062002d0783398101604081905262000038916200010a565b6001600160a01b03811660a0526200004f62000056565b506200013c565b7ff0c57e16840df040f15088dc2f81fe391c3923bec73e23a9662efc9c229c6a00805468010000000000000000900460ff1615620000a75760405163f92ee8a960e01b815260040160405180910390fd5b80546001600160401b0390811614620001075780546001600160401b0319166001600160401b0390811782556040519081527fc7f505b2f371ae2175ee4913f4499e1f2633a7b5936321eed1cdaeb6115181d29060200160405180910390a15b50565b6000602082840312156200011d57600080fd5b81516001600160a01b03811681146200013557600080fd5b9392505050565b60805160a051612b896200017e6000396000818161031d015281816104210152611c3b015260008181611689015281816116b201526117f80152612b896000f3fe60806040526004361061019c5760003560e01c806367a1963b116100ec5780638da5cb5b1161008a578063c0c53b8b11610064578063c0c53b8b146104e2578063e37c421314610502578063f23bb52614610522578063f2fde38b1461054257600080fd5b80638da5cb5b1461047a578063ad3cb1cc1461048f578063bdf11964146104cd57600080fd5b8063715018a6116100c6578063715018a6146103fd5780637da0a877146104125780638456cb5914610445578063884915001461045a57600080fd5b806367a1963b146103925780636a08315c146103b25780636e9fb8a5146103d057600080fd5b80632d0821b71161015957806352d1902d1161013357806352d1902d146102eb578063572b6c05146103005780635c975abb1461034d57806366c3b5fa1461037257600080fd5b80632d0821b7146102965780633f4ba83a146102c35780634f1ef286146102d857600080fd5b80630d1cfcae146101a15780630dc9d58f146101d8578063101a711b146101fa57806317be6d541461022a5780632143625c1461025757806328342ecf14610276575b600080fd5b3480156101ad57600080fd5b506002546001600160a01b03165b6040516001600160a01b0390911681526020015b60405180910390f35b3480156101e457600080fd5b506101f86101f3366004612024565b610562565b005b34801561020657600080fd5b5061021a610215366004612070565b610750565b60405190151581526020016101cf565b34801561023657600080fd5b5061024a610245366004612070565b61078d565b6040516101cf9190612089565b34801561026357600080fd5b506001545b6040519081526020016101cf565b34801561028257600080fd5b506101f86102913660046120fd565b610830565b3480156102a257600080fd5b506102b66102b1366004612070565b610881565b6040516101cf919061221b565b3480156102cf57600080fd5b506101f8610bac565b6101f86102e63660046122e1565b610bbe565b3480156102f757600080fd5b50610268610bdd565b34801561030c57600080fd5b5061021a61031b3660046120fd565b7f00000000000000000000000000000000000000000000000000000000000000006001600160a01b0390811691161490565b34801561035957600080fd5b50600080516020612b348339815191525460ff1661021a565b34801561037e57600080fd5b506101f861038d366004612070565b610bfa565b34801561039e57600080fd5b506101f86103ad3660046120fd565b610cac565b3480156103be57600080fd5b506003546001600160a01b03166101bb565b3480156103dc57600080fd5b506103f06103eb366004612070565b610cfd565b6040516101cf91906123a5565b34801561040957600080fd5b506101f8610df7565b34801561041e57600080fd5b507f00000000000000000000000000000000000000000000000000000000000000006101bb565b34801561045157600080fd5b506101f8610e09565b34801561046657600080fd5b506101f861047536600461244e565b610e19565b34801561048657600080fd5b506101bb610fb7565b34801561049b57600080fd5b506104c0604051806040016040528060058152602001640352e302e360dc1b81525081565b6040516101cf919061248d565b3480156104d957600080fd5b50610268603281565b3480156104ee57600080fd5b506101f86104fd3660046124a0565b610fe5565b34801561050e57600080fd5b506101f861051d366004612024565b6111b4565b34801561052e57600080fd5b5061026861053d36600461252d565b6112ed565b34801561054e57600080fd5b506101f861055d3660046120fd565b611507565b61056a61154a565b600081900361058c57604051631563113f60e21b815260040160405180910390fd5b60006105978461157b565b80549091506001600160a01b03166105ad6115b5565b6001600160a01b0316146105d457604051635d6d183b60e01b815260040160405180910390fd5b6000805b8381101561070e5760005b600384015481101561070557858583818110610601576106016125f1565b90506020028101906106139190612607565b60405161062192919061264e565b604051809103902084600301828154811061063e5761063e6125f1565b906000526020600020016040516106559190612698565b6040518091039020036106fd5760038401805461067490600190612724565b81548110610684576106846125f1565b906000526020600020018460030182815481106106a3576106a36125f1565b9060005260206000200190816106b99190612787565b50836003018054806106cd576106cd612868565b6001900381819060005260206000200160006106e99190611f48565b9055826106f58161287e565b935050610705565b6001016105e3565b506001016105d8565b50847faca11d18de6b7a2363937b2c27bb34b38a92f880cb3291a30b885ca121ee6eaf8260405161074191815260200190565b60405180910390a25050505050565b6000600154821061077457604051630462738560e21b815260040160405180910390fd5b5060009081526020819052604090206006015460ff1690565b606060015482106107b157604051630462738560e21b815260040160405180910390fd5b60008281526020818152604080832060040180548251818502810185019093528083529193909284015b8282101561082557600084815260209081902060408051808201909152908401546001600160a01b0381168252600160a01b900461ffff16818301528252600190920191016107db565b505050509050919050565b6108386115c4565b6001600160a01b03811661085f5760405163d92e233d60e01b815260040160405180910390fd5b600280546001600160a01b0319166001600160a01b0392909216919091179055565b6108cc6040518060e0016040528060006001600160a01b0316815260200160608152602001606081526020016060815260200160608152602001600081526020016000151581525090565b60015482106108ee57604051630462738560e21b815260040160405180910390fd5b60008281526020818152604091829020825160e0810190935280546001600160a01b0316835260018101805491928401916109289061265e565b80601f01602080910402602001604051908101604052809291908181526020018280546109549061265e565b80156109a15780601f10610976576101008083540402835291602001916109a1565b820191906000526020600020905b81548152906001019060200180831161098457829003601f168201915b505050505081526020016002820180546109ba9061265e565b80601f01602080910402602001604051908101604052809291908181526020018280546109e69061265e565b8015610a335780601f10610a0857610100808354040283529160200191610a33565b820191906000526020600020905b815481529060010190602001808311610a1657829003601f168201915b5050505050815260200160038201805480602002602001604051908101604052809291908181526020016000905b82821015610b0d578382906000526020600020018054610a809061265e565b80601f0160208091040260200160405190810160405280929190818152602001828054610aac9061265e565b8015610af95780601f10610ace57610100808354040283529160200191610af9565b820191906000526020600020905b815481529060010190602001808311610adc57829003601f168201915b505050505081526020019060010190610a61565b50505050815260200160048201805480602002602001604051908101604052809291908181526020016000905b82821015610b8457600084815260209081902060408051808201909152908401546001600160a01b0381168252600160a01b900461ffff1681830152825260019092019101610b3a565b505050908252506005820154602082015260069091015460ff16151560409091015292915050565b610bb46115c4565b610bbc611618565b565b610bc661167e565b610bcf82611723565b610bd9828261172b565b5050565b6000610be76117ed565b50600080516020612b1483398151915290565b610c0261154a565b6000610c0d82611836565b90506000610c196115b5565b82549091506001600160a01b03808316911614801590610c525750610c3c610fb7565b6001600160a01b0316816001600160a01b031614155b15610c7057604051635d6d183b60e01b815260040160405180910390fd5b60068201805460ff1916905560405183907f526fe7a17baf10f2921fa37b197617c658b79e310d3f6bfdf3f36f3636d7081290600090a2505050565b610cb46115c4565b6001600160a01b038116610cdb5760405163d92e233d60e01b815260040160405180910390fd5b600380546001600160a01b0319166001600160a01b0392909216919091179055565b60606001548210610d2157604051630462738560e21b815260040160405180910390fd5b60008281526020818152604080832060030180548251818502810185019093528083529193909284015b82821015610825578382906000526020600020018054610d6a9061265e565b80601f0160208091040260200160405190810160405280929190818152602001828054610d969061265e565b8015610de35780601f10610db857610100808354040283529160200191610de3565b820191906000526020600020905b815481529060010190602001808311610dc657829003601f168201915b505050505081526020019060010190610d4b565b610dff6115c4565b610bbc600061186c565b610e116115c4565b610bbc6118dd565b610e2161154a565b6000610e2c8461157b565b80549091506001600160a01b0316610e426115b5565b6001600160a01b031614610e6957604051635d6d183b60e01b815260040160405180910390fd5b610e738383611928565b6000848152602081905260408120610e9091600490910190611f82565b60005b82811015610f7a5781600401848483818110610eb157610eb16125f1565b83546001810185556000948552602090942060409091029290920192919091019050610edd82826128a7565b5050838382818110610ef157610ef16125f1565b610f0792602060409092020190810191506120fd565b6001600160a01b0316857f6e916990b40df935e5379fbc5e1be88cf7daee205884b042d2cc971ca4cd0d45868685818110610f4457610f446125f1565b9050604002016020016020810190610f5c9190612901565b60405161ffff909116815260200160405180910390a3600101610e93565b5060405182815284907f63993e68673b7fa4ca0c5668e15747f9a7d5c73ab7356a5bca65590ce310e227906020015b60405180910390a250505050565b7f9016d09d72d40fdae2fd8ceac6b6234c7706214fd39c1cd1e609a0528c199300546001600160a01b031690565b7ff0c57e16840df040f15088dc2f81fe391c3923bec73e23a9662efc9c229c6a008054600160401b810460ff16159067ffffffffffffffff1660008115801561102b5750825b905060008267ffffffffffffffff1660011480156110485750303b155b905081158015611056575080155b156110745760405163f92ee8a960e01b815260040160405180910390fd5b845467ffffffffffffffff19166001178555831561109e57845460ff60401b1916600160401b1785555b6001600160a01b0388166110c55760405163d92e233d60e01b815260040160405180910390fd5b6001600160a01b0387166110ec5760405163d92e233d60e01b815260040160405180910390fd5b6001600160a01b0386166111135760405163d92e233d60e01b815260040160405180910390fd5b61111c886119bb565b6111246119cc565b61112c6119dc565b6111346119ec565b600280546001600160a01b03808a166001600160a01b031992831617909255600380549289169290911691909117905583156111aa57845460ff60401b19168555604051600181527fc7f505b2f371ae2175ee4913f4499e1f2633a7b5936321eed1cdaeb6115181d29060200160405180910390a15b5050505050505050565b6111bc61154a565b60008190036111de57604051631563113f60e21b815260040160405180910390fd5b603281111561120057604051634b389e6360e01b815260040160405180910390fd5b600061120b8461157b565b80549091506001600160a01b03166112216115b5565b6001600160a01b03161461124857604051635d6d183b60e01b815260040160405180910390fd5b61125283836119f4565b60005b828110156112ae5781600301848483818110611273576112736125f1565b90506020028101906112859190612607565b825460018101845560009384526020909320909201916112a5918361291e565b50600101611255565b50600381015460405185917f36707e9cc1bed78fb4887144a0ce1d95c135c84fd67e192e40335300f2b026e491610fa991868252602082015260400190565b60006112f761154a565b600088900361131957604051631563113f60e21b815260040160405180910390fd5b600084900361133b57604051631563113f60e21b815260040160405180910390fd5b603284111561135d57604051634b389e6360e01b815260040160405180910390fd5b60006113676115b5565b905061137281611b2a565b61137c8484611928565b61138686866119f4565b600180549060006113968361287e565b90915550600081815260208190526040902080546001600160a01b0319166001600160a01b038416178155909250600181016113d38b8d8361291e565b50600281016113e3898b8361291e565b5042600582015560068101805460ff1916600117905560005b86811015611455578160030188888381811061141a5761141a6125f1565b905060200281019061142c9190612607565b8254600181018455600093845260209093209092019161144c918361291e565b506001016113fc565b5060005b848110156114ad5781600401868683818110611477576114776125f1565b835460018101855560009485526020909420604090910292909201929190910190506114a382826128a7565b5050600101611459565b50816001600160a01b0316837ff59e3bcd3a18d706634eff7d56d6ba0ab0469f7ff99e42346e385eef6fcac0a58d8d8b8b9050426040516114f19493929190612a07565b60405180910390a3505098975050505050505050565b61150f6115c4565b6001600160a01b03811661153e57604051631e4fbdf760e01b8152600060048201526024015b60405180910390fd5b6115478161186c565b50565b600080516020612b348339815191525460ff1615610bbc5760405163d93c066560e01b815260040160405180910390fd5b60008061158783611836565b600681015490915060ff166115af5760405163fe3588fb60e01b815260040160405180910390fd5b92915050565b60006115bf611c2b565b905090565b6115cc6115b5565b6001600160a01b03166115dd610fb7565b6001600160a01b031614610bbc576115f36115b5565b60405163118cdaa760e01b81526001600160a01b039091166004820152602401611535565b611620611ca0565b600080516020612b34833981519152805460ff191681557f5db9ee0a495bf2e6ff9c91a7834c1ba4fdd244a5e8aa4e537bd38aeae4b073aa6116606115b5565b6040516001600160a01b03909116815260200160405180910390a150565b306001600160a01b037f000000000000000000000000000000000000000000000000000000000000000016148061170557507f00000000000000000000000000000000000000000000000000000000000000006001600160a01b03166116f9600080516020612b14833981519152546001600160a01b031690565b6001600160a01b031614155b15610bbc5760405163703e46dd60e11b815260040160405180910390fd5b6115476115c4565b816001600160a01b03166352d1902d6040518163ffffffff1660e01b8152600401602060405180830381865afa925050508015611785575060408051601f3d908101601f1916820190925261178291810190612a2e565b60015b6117ad57604051634c9c8ce360e01b81526001600160a01b0383166004820152602401611535565b600080516020612b1483398151915281146117de57604051632a87526960e21b815260048101829052602401611535565b6117e88383611cd0565b505050565b306001600160a01b037f00000000000000000000000000000000000000000000000000000000000000001614610bbc5760405163703e46dd60e11b815260040160405180910390fd5b6000600154821061185a57604051630462738560e21b815260040160405180910390fd5b50600090815260208190526040902090565b7f9016d09d72d40fdae2fd8ceac6b6234c7706214fd39c1cd1e609a0528c19930080546001600160a01b031981166001600160a01b03848116918217845560405192169182907f8be0079c531659141344cd1fd0a4f28419497f9722a3daafe3b4186f6b6457e090600090a3505050565b6118e561154a565b600080516020612b34833981519152805460ff191660011781557f62e78cea01bee320cd4e420270b5ea74000d11b0c9f74754ebdbfc544b05a2586116606115b5565b600081900361194a5760405163108cef9d60e31b815260040160405180910390fd5b6000805b8281101561199857838382818110611968576119686125f1565b90506040020160200160208101906119809190612901565b61198e9061ffff1683612a47565b915060010161194e565b5080612710146117e85760405163108cef9d60e31b815260040160405180910390fd5b6119c3611d26565b61154781611d6f565b6119d4611d26565b610bbc611d77565b6119e4611d26565b610bbc611d98565b610bbc611d26565b60005b818110156117e85760035460009081906001600160a01b0316858585818110611a2257611a226125f1565b9050602002810190611a349190612607565b604051602401611a45929190612a5a565b60408051601f198184030181529181526020820180516001600160e01b0316637a21106360e01b17905251611a7a9190612a76565b600060405180830381855afa9150503d8060008114611ab5576040519150601f19603f3d011682016040523d82523d6000602084013e611aba565b606091505b5091509150811580611acb57508051155b15611ae9576040516315f2470160e31b815260040160405180910390fd5b600081806020019051810190611aff9190612a92565b905080611b1f576040516315f2470160e31b815260040160405180910390fd5b5050506001016119f7565b6002546040516001600160a01b038381166024830152600092839291169060440160408051601f198184030181529181526020820180516001600160e01b03166332f0f23360e11b17905251611b809190612a76565b600060405180830381855afa9150503d8060008114611bbb576040519150601f19603f3d011682016040523d82523d6000602084013e611bc0565b606091505b5091509150811580611bd157508051155b15611bef57604051637b5b95df60e11b815260040160405180910390fd5b600081806020019051810190611c059190612a92565b905080611c2557604051637b5b95df60e11b815260040160405180910390fd5b50505050565b6000366014336001600160a01b037f000000000000000000000000000000000000000000000000000000000000000016148015611c685750808210155b15611c9857600036611c7a8385612724565b611c85928290612ab4565b611c8e91612ade565b60601c9250505090565b339250505090565b600080516020612b348339815191525460ff16610bbc57604051638dfc202b60e01b815260040160405180910390fd5b611cd982611dc6565b6040516001600160a01b038316907fbc7cd75a20ee27fd9adebab32041f755214dbc6bffa90cc0225b39da2e5c2d3b90600090a2805115611d1e576117e88282611e2b565b610bd9611ea1565b7ff0c57e16840df040f15088dc2f81fe391c3923bec73e23a9662efc9c229c6a0054600160401b900460ff16610bbc57604051631afcd79f60e31b815260040160405180910390fd5b61150f611d26565b611d7f611d26565b600080516020612b34833981519152805460ff19169055565b611da0611d26565b60017f9b779b17422d0df92223018b32b4d1fa46e071723d6817e2486d003becc55f0055565b806001600160a01b03163b600003611dfc57604051634c9c8ce360e01b81526001600160a01b0382166004820152602401611535565b600080516020612b1483398151915280546001600160a01b0319166001600160a01b0392909216919091179055565b6060600080846001600160a01b031684604051611e489190612a76565b600060405180830381855af49150503d8060008114611e83576040519150601f19603f3d011682016040523d82523d6000602084013e611e88565b606091505b5091509150611e98858383611ec0565b95945050505050565b3415610bbc5760405163b398979f60e01b815260040160405180910390fd5b606082611ed557611ed082611f1f565b611f18565b8151158015611eec57506001600160a01b0384163b155b15611f1557604051639996b31560e01b81526001600160a01b0385166004820152602401611535565b50805b9392505050565b805115611f2f5780518082602001fd5b60405163d6bda27560e01b815260040160405180910390fd5b508054611f549061265e565b6000825580601f10611f64575050565b601f0160209004906000526020600020908101906115479190611fa0565b50805460008255906000526020600020908101906115479190611fb9565b5b80821115611fb55760008155600101611fa1565b5090565b5b80821115611fb55780546001600160b01b0319168155600101611fba565b60008083601f840112611fea57600080fd5b50813567ffffffffffffffff81111561200257600080fd5b6020830191508360208260051b850101111561201d57600080fd5b9250929050565b60008060006040848603121561203957600080fd5b83359250602084013567ffffffffffffffff81111561205757600080fd5b61206386828701611fd8565b9497909650939450505050565b60006020828403121561208257600080fd5b5035919050565b6020808252825182820181905260009190848201906040850190845b818110156120dc57835180516001600160a01b0316845260209081015161ffff1690840152604083019385019392506001016120a5565b50909695505050505050565b6001600160a01b038116811461154757600080fd5b60006020828403121561210f57600080fd5b8135611f18816120e8565b60005b8381101561213557818101518382015260200161211d565b50506000910152565b6000815180845261215681602086016020860161211a565b601f01601f19169290920160200192915050565b60008282518085526020808601955060208260051b8401016020860160005b848110156121b757601f198684030189526121a583835161213e565b98840198925090830190600101612189565b5090979650505050505050565b60008151808452602080850194506020840160005b8381101561221057815180516001600160a01b0316885260209081015161ffff1690880152604087019650908201906001016121d9565b509495945050505050565b602080825282516001600160a01b03168282015282015160e0604083015260009061224a61010084018261213e565b90506040840151601f1980858403016060860152612268838361213e565b92506060860151915080858403016080860152612285838361216a565b925060808601519150808584030160a0860152506122a382826121c4565b91505060a084015160c084015260c08401516122c360e085018215159052565b509392505050565b634e487b7160e01b600052604160045260246000fd5b600080604083850312156122f457600080fd5b82356122ff816120e8565b9150602083013567ffffffffffffffff8082111561231c57600080fd5b818501915085601f83011261233057600080fd5b813581811115612342576123426122cb565b604051601f8201601f19908116603f0116810190838211818310171561236a5761236a6122cb565b8160405282815288602084870101111561238357600080fd5b8260208601602083013760006020848301015280955050505050509250929050565b600060208083016020845280855180835260408601915060408160051b87010192506020870160005b828110156123fc57603f198886030184526123ea85835161213e565b945092850192908501906001016123ce565b5092979650505050505050565b60008083601f84011261241b57600080fd5b50813567ffffffffffffffff81111561243357600080fd5b6020830191508360208260061b850101111561201d57600080fd5b60008060006040848603121561246357600080fd5b83359250602084013567ffffffffffffffff81111561248157600080fd5b61206386828701612409565b602081526000611f18602083018461213e565b6000806000606084860312156124b557600080fd5b83356124c0816120e8565b925060208401356124d0816120e8565b915060408401356124e0816120e8565b809150509250925092565b60008083601f8401126124fd57600080fd5b50813567ffffffffffffffff81111561251557600080fd5b60208301915083602082850101111561201d57600080fd5b6000806000806000806000806080898b03121561254957600080fd5b883567ffffffffffffffff8082111561256157600080fd5b61256d8c838d016124eb565b909a50985060208b013591508082111561258657600080fd5b6125928c838d016124eb565b909850965060408b01359150808211156125ab57600080fd5b6125b78c838d01611fd8565b909650945060608b01359150808211156125d057600080fd5b506125dd8b828c01612409565b999c989b5096995094979396929594505050565b634e487b7160e01b600052603260045260246000fd5b6000808335601e1984360301811261261e57600080fd5b83018035915067ffffffffffffffff82111561263957600080fd5b60200191503681900382131561201d57600080fd5b8183823760009101908152919050565b600181811c9082168061267257607f821691505b60208210810361269257634e487b7160e01b600052602260045260246000fd5b50919050565b60008083546126a68161265e565b600182811680156126be57600181146126d357612702565b60ff1984168752821515830287019450612702565b8760005260208060002060005b858110156126f95781548a8201529084019082016126e0565b50505082870194505b50929695505050505050565b634e487b7160e01b600052601160045260246000fd5b818103818111156115af576115af61270e565b601f8211156117e8576000816000526020600020601f850160051c810160208610156127605750805b601f850160051c820191505b8181101561277f5782815560010161276c565b505050505050565b818103612792575050565b61279c825461265e565b67ffffffffffffffff8111156127b4576127b46122cb565b6127c8816127c2845461265e565b84612737565b6000601f8211600181146127fc57600083156127e45750848201545b600019600385901b1c1916600184901b178455612861565b600085815260209020601f19841690600086815260209020845b838110156128365782860154825560019586019590910190602001612816565b50858310156128545781850154600019600388901b60f8161c191681555b50505060018360011b0184555b5050505050565b634e487b7160e01b600052603160045260246000fd5b6000600182016128905761289061270e565b5060010190565b61ffff8116811461154757600080fd5b81356128b2816120e8565b81546001600160a01b031981166001600160a01b0392909216918217835560208401356128de81612897565b6001600160b01b03199190911690911760a09190911b61ffff60a01b1617905550565b60006020828403121561291357600080fd5b8135611f1881612897565b67ffffffffffffffff831115612936576129366122cb565b61294a83612944835461265e565b83612737565b6000601f84116001811461297e57600085156129665750838201355b600019600387901b1c1916600186901b178355612861565b600083815260209020601f19861690835b828110156129af578685013582556020948501946001909201910161298f565b50868210156129cc5760001960f88860031b161c19848701351681555b505060018560011b0183555050505050565b81835281816020850137506000828201602090810191909152601f909101601f19169091010190565b606081526000612a1b6060830186886129de565b6020830194909452506040015292915050565b600060208284031215612a4057600080fd5b5051919050565b808201808211156115af576115af61270e565b602081526000612a6e6020830184866129de565b949350505050565b60008251612a8881846020870161211a565b9190910192915050565b600060208284031215612aa457600080fd5b81518015158114611f1857600080fd5b60008085851115612ac457600080fd5b83861115612ad157600080fd5b5050820193919092039150565b6bffffffffffffffffffffffff198135818116916014851015612b0b5780818660140360031b1b83161692505b50509291505056fe360894a13ba1a3210667c828492db98dca3e2076cc3735a920a3ca505d382bbccd5ed15c6e187e77e9aee88184c21f4f2182ab5827cb3b7e07fbedcd63f03300a2646970667358221220305cb81f3592dbaa22eccd031424044185ffebc0870502fc0682142d7599dad564736f6c63430008180033",
  "linkReferences": {},
  "deployedLinkReferences": {}
}